:10228C00C6D5D6D0BFC6BCBC0052535400583A0079
:0F229C00593A00000000000000000000000000A0
:1018ED00E4F50878097C00FD7BFF7A22799FFE7F65
:1018FD00061216F9780F7C007D007BFF7A2279A500
:10190D007E007F061216F9121F84021A4FE5086435
:10191D00017054FFFE1222317BFF7A22798C7524DF
:10192D00F8752500E4F526F5277D18FC7F14FE12C9
:10193D001CE27522007523367524F87525007B8C05
:10194D007D367C007F147E00121B9B7BFF7A2279F3
:10195D00957524F8752500E4F526F527FDFC7F7FA8
:10196D00FE122044E4F508121EBDBF01A0E4854F10
:10197D0018854E17F516F515E51824D0FFE5173423
:10198D00FEFEE51634FFFDE51534FFFCE47BAFFAF2
:10199D00F9F81217BAE47B5E7A0DF9F81221AE8FC1
:1019AD00188E178D168C15E485511C85501BF51A54
:1019BD00F519251CFFE51B34FFFEE51A34FFFDE587
:1019CD001934FFFCE47BDBFAF9F81217BAE47B0C4F
:1019DD007A0DF9F81221AE8F1C8E1B8D1A8C19E41D
:1019ED007FAFFEFDFCAB18AA17A916A815D31218C8
:1019FD0009400AE47518AEF517F516F515E47FDB09
:101A0D00FEFDFCAB1CAA1BA91AA819D3121809407C
:101A1D000AE4751CDAF51BF51AF519E47F7FFEFD56
:101A2D00FCAB18AA17A916A815D31218094019E46A
:101A3D007F18FEFDFCAB1CAA1BA91AA819121809C8
:101A4D00500675080102191AAE17AF18AC1BAD1C64
:101A5D007B1F7A00122163AE4EAF4F7C277D101293
:101A6D0017657E037FE8CFCDCFCECCCE121765EFB5
:101A7D002430F50AAE4EAF4F7C037DE81217657E1C
:101A8D00007F64CFCDCFCECCCE121765EF2430F5CD
:101A9D000BAE4EAF4F7C007D641217657E007F0A42
:101AAD00CFCDCFCECCCE121765EF2430F50CAE4E88
:101ABD00AF4F7C007D0A121765ED2430F50DAE5049
:101ACD00AF517C277D101217657E037FE8CFCDCFF8
:101ADD00CECCCE121765EF2430F510AE50AF517C41
:101AED00037DE81217657E007F64CFCDCFCECCCEBF
:101AFD00121765EF2430F511AE50AF517C007D64A7
:101B0D001217657E007F0ACFCDCFCECCCE121765D2
:101B1D00EF2430F512AE50AF517C007D0A121765DF
:101B2D00ED2430F5137BFF7A2279997524F875250C
:101B3D0000E4F526F5277DAAFCFFFE1220447B006C
:101B4D007A00790A7524F8752500E4F526F5277DC8
:101B5D00AAFC7F20FE1220447BFF7A22799C7524FB
:101B6D00F8752500E4F526F5277DC3FCFFFE122050
:101B7D00447B007A0079107524F8752500E4F5266C
:0E1B8D00F5277DC3FC7F20FE12204402191AAA
:1022AB00E4FDFCC3ED9FEC9E5014E4FBFA0BBB006A
:0E22BB00010AEBF44A70F60DBD00010C80E53F
:0122C90022F2
:0F231400C2A7D2B2C2A68F80C2A5D2A5D2A722DD
:04230100122314FF90
:0F230500C2A7D2B2D2A68F80C2A5D2A5D2A722DC
:101F8400D2B37FC87E001222ABC2B37F207E03127D
:101F940022ABD2B31222ABC2A77F367E0012231427
:101FA4007FC81223057F3A1223147F051223057F6D
:101FB400FE1223147FEF1223147FE21223147F8076
:101FC4001223057FA31223147F071223057FA41273
:101FD40023147F091223057FFF1223147F12122377
:101FE400057FFD1223147F041223057FF5122314A9
:101FF400E4FF1223057FFB1223017FF11223147FD8
:10200400551223057FF81223147F221223057FF330
:102014001223147F521223057FFA1223147F2512F0
:1020240023057FF41223017FFC1223017F11122365
:10203400147F781222AB7F291223147F320222AB41
:1021F2008F828E837F2A7E00122314E583FF1223AF
:1022020005AF82122305EAFF122305AF031223054D
:102212007F2B122314ECFF122305AF05122305E5D1
:0F22220045FF122305AF461223057F2C0223141C
:1022E600AD07AC06C2A7D2B2D2A6ECFF8F80C2A5BC
:0B22F600D2A58D80C2A5D2A5D2A722E0
:042231008E1D8F1E51
:102235007545007546DB7BAF7A00E4FDFCFFFE12B9
:1022450021F2E4FB900000AF1EAE1D1222E6A3E5CD
:102255008264B0458370F00BBB00010AEB64DC4A75
:0222650070E225
:012267002254
:10000300C6D50000000000E0380000783C00003C4A
:100013007800003C70C0001CE1E01FFFFFF0001CF3
:10002300E3000E1CE7C0079CE78003DCEF0003DC62
:10003300EE0001DCFC60009CF9F07FFFFFF800009C
:10004300000001C00E0001FFFF0001C00E0001C04F
:100053000E0001C00E0001FFFE0001C00E0001C032
:100063000E0001C00E0001FFFE0001C00E0001C022
:100073000E0000000000D6D00000000000070000C2
:1000830000078000000700000007000000070000D1
:10009300000701801FFFFFE01FFFFFE01E0701C0F5
:1000A3001E0701C01E0701C01E0701C01E0701C0B5
:1000B3001E0701C01FFFFFC01FFFFFC01E0701C0B7
:1000C3001C07018000070000000700000007000074
:1000D3000007000000070000000700000007000001
:1000E300000700000007000000000000BFC600007A
:1000F300000000000780003C07C001FC07803FE0D0
:10010300078039C1C78001C0E78001C0F78001C003
:10011300778001DE77807FFE078001C0078003C3FD
:10012300C78003E1E78003F8F78007FCE7F00FDE01
:1001330067F80FDC07F81FC0FF801DDFE78039CCAD
:10014300078071C0078061C0078001C0078001C0BC
:10015300078001E0078001E0078001C0070000007D
:100163000000BCBC000000000380300003C03C0062
:1001730003C03C0003C0380003C0380003C038602C
:1001830003F838F07FFFFFF003C0380003C03800E6
:1001930003C0380003DC39C003FFFFE007E383C07B
:1001A3003FC183C07FC1C3803BC1C78003C0EF0091
:1001B30003C0EF0003C07E0003C07C0003C07C00CB
:1001C30003C0FE003BC3EF803F8787F80FBF03F8F0
:1001D300077800E000000000C4EA0000000000C04F
:1001E300000001F0000001E0000003C000C003C0F4
:1001F30001E007FFFFF00703C0000E03C0001E036A
:10020300C0003C03C3007303C78063FFFFC00383C5
:10021300C0000383C0000383C0000383C0000383C3
:10022300C0600383C0F07FFFFFF80003C00000033A
:10023300C0000003C0000003C0000003C0000003AF
:10024300C0000003C0000003C00000000000D4C2CF
:10025300000000000000000000E0070000FFFF8036
:1002630000F0078000F0070000F0070000F007002F
:1002730000F0070000FFFF0000FFFF0000F0070091
:1002830000F0070000F0070000F0070000E007009F
:1002930000FFFF0000E0070000E0070000E00700A8
:1002A30001E0070001C0070001C007000380070049
:1002B3000780F7000F007F001E001F0038001C009E
:1002C30000000000C8D5000000000000000003008B
:1002D300030003FFFF8003FFFF8003800700038009
:1002E30007000380070003800700038007000380E3
:1002F3000700038007000380070003FFFF0003805C
:1003030007000380070003800700038007000380C2
:1003130007000380070003800700038007000380B2
:10032300070003FFFF00038007000380070003802B
:1003330007000300000000000000D0C70000000019
:10034300000000000380070003FFFF800380070015
:10035300038007000380070003FFFF0003800700FB
:100363000380070003FFFF0003FFFF00038707006D
:100373000387C00003C7810003C7838007FFFFC053
:10038300070780000F0780001E0786001C078F00E9
:100393003BFFFF807007800000078000000780E0BC
:1003A300000781F07FFFFFF800000000000000005D
:1003B300C6DA0000000006000000079E0000079E4A
:1003C3007FF0079E7FF0079FF8F03FFFF8F01F9E36
:1003D30078F0079E78F0079E78F007FE7FF0079E7F
:1003E30078F0079E78F0079E70F007FE70F0079E86
:1003F30070F0079E7FF0079FFFF03FFFF0F0119032
:1004030070F003DCF0F003DEE0F0078FE0F00F0F95
:10041300E0F00E07C0F01C038FF0380F03E0201C40
:1004230001C0000000000000000000000000000008
:1004330000000000000000000000000000000000B9
:1004430000000000000000000000000000000000A9
:100453000000000000000000000000000000070092
:100463000700070007000700020002000200020065
:100473000200020000000000000007000700070060
:1004830000000000000000000000066006600CC0D1
:10049300198011002200000000000000000000008D
:1004A3000000000000000000000000000000000049
:1004B3000000000000000000000000000000000039
:1004C30010401040104010407FE07FE0104010408B
:1004D300208020807FE07FE020802080208020809B
:1004E3000000000000000000000000000200020005
:1004F3000F801AC032C032C032001A000E0007004B
:100503000380038002C032C032C032C012800F00A9
:1005130002000200000000000000000000000000D4
:1005230070C050808880890089008B008A005FC07A
:10053300754006200A200A201A201220114021C0EB
:1005430000000000000000000000000000000000A8
:100553001C00260026002600260025C03880308097
:1005630058804900CD00C700C600C300652038C0CD
:100573000000000000000000000030003800080008
:1005830008001000600000000000000000000000F0
:100593000000000000000000000000000000000058
:1005A3000000000000000000000000200040008068
:1005B3000180010003000300060006000600060098
:1005C300060006000600030003000100018000800E
:1005D3000040002000000000000040002000100048
:1005E300180008000C000C000600060006000600B8
:1005F3000600060006000C000C000800180010009E
:100603002000400000000000000000000000000087
:10061300000002000200020072703AE00F800F80B7
:100623003AE07270020002000200000000000000C5
:1006330000000000000000000000000000000000B7
:1006430000000000020002000200020002007FF02E
:10065300020002000200020002000000000000008D
:100663000000000000000000000000000000000087
:100673000000000000000000000000000000000077
:1006830000000000000000000000300038000800F7
:1006930008001000600000000000000000000000DF
:1006A30000000000000000000000000000007FE0E8
:1006B3000000000000000000000000000000000037
:1006C3000000000000000000000000000000000027
:1006D3000000000000000000000000000000000017
:1006E300000000000000000000003800380038005F
:1006F3000000000000000000000000200060004037
:1007030000C000800080010001000200020006001A
:10071300040004000800080010001000300020004E
:100723006000400000000000000000000000000026
:100733000F00198030C030C060606060606060602E
:10074300606060606060606030C030C019800F001E
:100753000000000000000000000000000000000096
:10076300020006003E000600060006000600060022
:1007730006000600060006000600060006003FC04D
:100783000000000000000000000000000000000066
:100793001F00218040C060C060C000C00180018094
:1007A3000300040008001040204040407FC07FC089
:1007B3000000000000000000000000000000000036
:1007C3001E002300618061806180018003000E00B0
:1007D3000180008000C060C060C060C021801F0035
:1007E3000000000000000000000000000000008086
:1007F30001800380038005800980098011802180A6
:10080300218041807FE0018001800180018007E039
:1008130000000000000000000000000000000000D5
:100823003FC03FC020002000200020002F00318067
:1008330020C000C000C060C060C0418021801F0094
:1008430000000000000000000000000000000000A5
:10085300078018C030C0300020006000678068C087
:1008630070606060606060602060304018C00F009E
:100873000000000000000000000000000000000075
:100883001FE03FE030402080208000800100010015
:100893000200020002000600060006000600060031
:1008A3000000000000000000000000000000000045
:1008B3001F8030C060606060606070403CC00F00AB
:1008C300338020C0606060606060606030C00F8013
:1008D3000000000000000000000000000000000015
:1008E3000F00308030C0604060606060606060E036
:1008F30031601E60006000C000C0308031801E0087
:1009030000000000000000000000000000000000E4
:1009130000000000000000000700070007000000BF
:1009230000000000000000000000070007000700AF
:1009330000000000000000000000000000000000B4
:100943000000000000000000000006000600000098
:100953000000000000000000000000000600060088
:10096300020004000000000000000000000000205E
:100973000040008001000200040008001000200075
:100983001000080004000200010000800040002065
:100993000000000000000000000000000000000054
:1009A300000000000000000000007FE000000000E5
:1009B300000000007FE000000000000000000000D5
:1009C3000000000000000000000000000000200004
:1009D3001000080004000200010000800040002015
:1009E3000040008001000200040008001000200005
:1009F30000000000000000000000000000000F8065
:100A030030C0406040606060606000C001800600EC
:100A1300040004000400000000000E000E000E009D
:100A230000000000000000000000000000000000C3
:100A330007801C601020335026D064906490689027
:100A43006890699069A066C0301030201840078014
:100A53000000000000000000000000000000000093
:100A6300060006000E000B000B001300118011801E
:100A730011801F8020C020C020C020606060F0F083
:100A83000000000000000000000000000000000063
:100A9300FF00618060C060C060C060C061807F0093
:100AA30060C06040606060606060606060C0FF80E4
:100AB3000000000000000000000000000000000033
:100AC30007E01860302030202000600060006000E4
:100AD30060006000600060203020304018800F000C
:100AE3000000000000000000000000000000000003
:100AF300FE00618060C060C06060606060606060D4
:100B0300606060606060606060C060C06380FE00C1
:100B130000000000000000000000000000000000D2
:100B2300FFC06040602060006000610061007F00E2
:100B33006100610060006000602060206040FFC0D1
:100B430000000000000000000000000000000000A2
:100B5300FFC060C0602060206000610061007F0012
:100B63006100610060006000600060006000F000F0
:100B73000000000000000000000000000000000072
:100B83000F4018C03040304020006000600060001B
:100B9300600063F060C060C030C030C018C00F0098
:100BA3000000000000000000000000000000000042
:100BB300F0F06060606060606060606060607FE073
:100BC3006060606060606060606060606060F0F002
:100BD3000000000000000000000000000000000012
:100BE3003FC00600060006000600060006000600D9
:100BF30006000600060006000600060006003FC0C9
:100C030000000000000000000000000000000000E1
:100C13000FF001800180018001800180018001804B
:100C230001800180018001800180018001800180B9
:100C3300618063003E00000000000000000000002F
:100C4300F3E0608061006200620064006C007C007D
:100C53007600670063006380618060C060E0F1F04C
:100C63000000000000000000000000000000000081
:100C7300F0006000600060006000600060006000E1
:100C83006000600060006000602060206040FFC082
:100C93000000000000000000000000000000000051
:100CA300F0F070E070E070E059605960596059608D
:100CB3005A604E604E604E604E6044604460E4F0A3
:100CC3000000000000000000000000000000000021
:100CD300E07070207020582058204C204620462079
:100CE3004320432041A040E040E040604060E020DA
:100CF30000000000000000000000000000000000F1
:100D03000F00198030C030406060606060606060D8
:100D13006060606060606060304030C019800F00C8
:100D230000000000000000000000000000000000C0
:100D3300FF8060C06060606060606060606060C031
:100D43007F80600060006000600060006000F00071
:100D53000000000000000000000000000000000090
:100D63000F00198030C03040606060606060606078
:100D73006060606060606E60324031C011800F80DF
:100D830001E000C0000000000000000000000000BF
:100D9300FF8060C0606060606060606060C07F0012
:100DA3006600630063006180618060C060C0F070B2
:100DB3000000000000000000000000000000000030
:100DC3001F2030E060206020600070003C000F00B6
:100DD30003C000C0006040604060606070C04F802E
:100DE3000000000000000000000000000000000000
:100DF3007FE04620861086100600060006000600E7
:100E030006000600060006000600060006000F00A6
:100E130000000000000000000000000000000000CF
:100E2300F0706020602060206020602060206020DF
:100E330060206020602060206020602030401F80A0
:100E4300000000000000000000000000000000009F
:100E5300F8F07060304030403040308018801880A7
:100E6300188018800D000D000D000F00060006000D
:100E7300000000000000000000000000000000006F
:100E8300F77066206620664066406740374037400B
:100E93003B803B803B803B80398011001100110077
:100EA300000000000000000000000000000000003F
:100EB30079E030C01880188019000D000E0006007C
:100EC300060007000B000B801980118030C079E009
:100ED300000000000000000000000000000000000F
:100EE300F8F0706030403080188018800D000D00DD
:100EF3000E000600060006000600060006001F801E
:100F030000000000000000000000000000000000DE
:100F13003FE020C041C001800380030003000600BE
:100F230006000C000C0018001820382030407FC049
:100F33000000000000000000000007E004000400BF
:100F4300040004000400040004000400040004007E
:100F5300040004000400040004000400040004006E
:100F6300040007E000000000000000000000200073
:100F73001000100010000800080004000400040022
:100F83000200020001000100010000800080004017
:100F9300004000400020000000003F00010001006D
:100FA3000100010001000100010001000100010036
:100FB3000100010001000100010001000100010026
:100FC30001003F0000000000000007000D801040FA
:100FD300000000000000000000000000000000000E
:100FE30000000000000000000000000000000000FE
:100FF30000000000000000000000000000000000EE
:1010030000000000000000000000000000000000DD
:1010130000000000000000000000000000000000CD
:1010230000000000FFF0000000003000380008005E
:101033000800100060000000000000000000000035
:10104300000000000000000000000000000000009D
:10105300000000000000000000000000000000008D
:10106300000000000000000000000F8030C030C00E
:1010730007C01CC030C060C060C060C071D03EF00B
:10108300000000000000000000000000000010004D
:101093007000300030003000300033803CC03860D6
:1010A30030603060306030603060304038C02F8056
:1010B300000000000000000000000000000000002D
:1010C300000000000000000000000F0031803180AC
:1010D30061806000600060006040304030800F003D
:1010E30000000000000000000000000000000040BD
:1010F30001C000C000C000C000C01EC031C030C06D
:1011030060C060C060C060C060C020C031E01E80AD
:1011130000000000000000000000000000000000CC
:1011230000000000000000000000078018C01060ED
:1011330030603FE030003000300018201C40078052
:10114300000000000000000000000000000000009C
:1011530003C006600C600C000C007FC00C000C0088
:101163000C000C000C000C000C000C000C003F8069
:10117300000000000000000000000000000000006C
:10118300000000000000000000000F70199030C044
:1011930030C030C019801F0030003E001FC06060A7
:1011A300606070E01F80000000000000000010007D
:1011B30070003000300030003000378038C030C05D
:1011C30030C030C030C030C030C030C030C079E033
:1011D300000000000000000000000000000000000C
:1011E300060006000000000000003E0006000600A6
:1011F30006000600060006000600060006003FC0C3
:1012030000000000000000000000000000000000DB
:10121300018001800000000000000F800180018038
:1012230001800180018001800180018001800180B3
:10123300018033003E0000000000000000001000A9
:101243007000300030003000300033C03100330014
:10125300320036003E003B0033003180318079E0BC
:101263000000000000000000000000000000020079
:101273003E00060006000600060006000600060003
:1012830006000600060006000600060006003FC032
:10129300000000000000000000000000000000004B
:1012A30000000000000000000000EEE077606660D0
:1012B3006660666066606660666066606660F7705A
:1012C300000000000000000000000000000000001B
:1012D3000000000000000000000073803CC030C02C
:1012E30030C030C030C030C030C030C030C079E012
:1012F30000000000000000000000000000000000EB
:10130300000000000000000000000F00198030C042
:101313006060606060606060606030C030C00F001B
:1013230000000000000000000000000000000000BA
:1013330000000000000000000000778038C030602B
:101343003060306030603060306030C038C037802B
:10135300300030007C0000000000000000000000AE
:10136300000000000000000000001E4031C030C03B
:1013730060C060C060C060C060C020C031C01EC01B
:1013830000C000C003E000000000000000000000F7
:1013930000000000000000000000F9E01A601C00DB
:1013A3001800180018001800180018001800FF0093
:1013B300000000000000000000000000000000002A
:1013C300000000000000000000000FE01860302063
:1013D30030001C000F8001C02060206030C03F80BF
:1013E30000000000000000000000000000000000FA
:1013F3000000040004000C000C007F800C000C00B3
:101403000C000C000C000C000C000C400C4007807E
:1014130000000000000000000000000000000000C9
:101423000000000000000000104071C030C030C058
:1014330030C030C030C030C030C030C039E01E8052
:101443000000000000000000000000000000000099
:10145300000000000000000000007CF0386018402D
:1014630018400C800C800C80070007000700020066
:101473000000000000000000000000000000000069
:1014830000000000000000000000F7B063206320AC
:101493006720372035C039C039C039C0108010806B
:1014A3000000000000000000000000000000000039
:1014B300000000000000000000007DE0188019809B
:1014C3000D000E00060007000B00198011C07BE021
:1014D3000000000000000000000000000000000009
:1014E300000000000000000000007DE0388018804C
:1014F30018800D000D000D00060006000200040018
:101503000400280038000000000000000000000074
:10151300000000000000000000003FC02180238085
:101523000300070006000E000C201C2018603FC0BB
:1015330000000000000000000000000000000000A8
:101543000000000000000000000000000000000098
:101553000000000000000000000000000000000088
:101563000000000000000000000000000000000078
:101573000000000000000000000000000000000068
:101583000000000000000000000000000000000058
:101593000000000000000000000000000000000048
:1015A3000000000000000000000000000000000038
:1015B3000000000000000000000000000000000028
:1015C3000000000000000000000000000000000018
:1015D3000000000000000000000000000000000008
:1015E30000000000000000000000000000000000F8
:1015F30000000000000000000000000000000000E8
:1016030000000000000000000000000000000000D7
:1016130000000000000000000000000000000000C7
:06162300000000000000C1
:0C2163008E3A8F3B8A3C8B3D8D828C8332
:10216F00E53B24FFFFE53A34FFFEE58224FFFDE562
:10217F008334FFFCE53B2402FBE4353AFAE5822485
:10218F0002F546E43583F5451221F2E4F53EAF3D05
:0E219F00AE3C1222E6053EE53EC3941040F031
:0121AD00220F
:0C20F4008E478F488C498D4A8A4B8B4CDC
:10210000E54824FDFFE54734FFFEE5482403FBE4F2
:102110003547FA854945854A461221F2E4F54DAF27
:102120004CAE4B1222E6054DE54DC3940740F0E559
:102130004A24FDFDE54934FFFCE54A2403F546E465
:102140003549F545AB48AA47AF48AE471221F2E4FE
:10215000F54DAF4CAE4B1222E6054DE54DC394074D
:0221600040F04D
:01216200225A
:101B9B00E4F528F529F52AF52BC3EB9FF52DE49EEB
:101BAB00F52CC3E5239DF52FE5229CF52E8E388F62
:101BBB00398C368D37D3E52D9400E52C64809480D9
:101BCB004008753200753301801DE52D452C7006DC
:101BDB00F532F533801174FFF532F533C3E4952DEF
:101BEB00F52DE4952CF52CD3E52F9400E52E648090
:101BFB0094804008753400753501801DE52F452E06
:101C0B007006F534F535801174FFF534F535C3E402
:101C1B00952FF52FE4952EF52ED3E52D952FE52E4B
:101C2B006480F8E52C6480984008852C30852D3134
:101C3B008006852E30852F31E4F526F527E53124F6
:101C4B0001FFE43530FED3E5279FE5269E400302D6
:101C5B001CE1AB25AA24AD37AC36AF39AE38122117
:101C6B0063E52D2529F529E52C3528F528E52F25C4
:101C7B002BF52BE52E352AF52AD3E5299531E530C1
:101C8B006480F8E5286480984018E5299531F5299A
:101C9B00E5289530F528E5332539F539E532353822
:101CAB00F538D3E52B9531E5306480F8E52A64806F
:101CBB00984018E52B9531F52BE52A9530F52AE55B
:101CCB00352537F537E5343536F5360527E52770F5
:061CDB00020526021C4870
:011CE10022E0
:0E1CE2008E1D8F1E8C1F8D208B218A22892340
:101CF000AB21AA22A92312171F7003021DD6E51ECD
:101D0000241FFBE4351DFAE520241CF546E4351FAD
:101D1000F545AD20AC1FAF1EAE1D1221F2E4F52A31
:101D2000AB21AA22A92312171FFF75F076E52AA47A
:101D30002403F582E5F03400F583E4936F7072902C
:101D40000001121738FF75F076E52AA42404F58205
:101D5000E5F03400F583E4936F7056F52875F0765E
:101D6000E52AA42405F582E5F03400F583E5822513
:101D700028F582E43583F583E493752B00F52CE494
:101D8000F529E52C30E706AF25AE248004AF27AE59
:101D9000261222E6E52C25E0F52CE52B33F52B0564
:101DA00029E529C3940840DA0528E528C39474403E
:101DB000AC052AE52AC394145003021D20740225A1
:101DC00023F523E43522F5227420251EF51EE43583
:061DD0001DF51D021CF0D0
:011DD60022EA
:0E2044008E1D8F1E8C1F8D208B218A228923DA
:10205200AB21AA22A92312171F70030220F324E046
:10206200F52AE51E240FFBE4351DFAE5202417F5B9
:1020720046E4351FF545AD20AC1FAF1EAE1D122143
:10208200F2E4F52975F030E52AA42429F582E5F079
:102092003404F583E5822529F582E43583F583E46A
:1020A20093752B00F52CE4F528E52C30E706AF25D7
:1020B200AE248004AF27AE261222E6E52C25E0F5F9
:1020C2002CE52B33F52B0528E528C3940840DA05C7
:1020D20029E529C3943040AC74012523F523E43566
:1020E20022F5227410251EF51EE4351DF51D022071
:0120F200529B
:0120F30022CA
:0B232F00C2A1D2A3D2A2D2A1C2A3225D
:1022CA00C2A1E4FEEFC4131313540124FF92A2EF38
:0B22DA0025E0FFC2A1D2A10EBE08E962
:0122E50022D6
:10226800E4FFFEC2A1FDFCEF25E0FFEE33FED2A1A4
:10227800C2A1A2A0E43342070DBD00010CED640C1D
:032288004C70E4B3
:01228B002230
:021DD700AB0758
:101DD900C2A1C2A3E4FAAF031222CA752706D52706
:101DE900FDD2A10000C2A10000122268EA25E02468
:101DF90028F8A60608A6070ABA0ADBD2A3E4FAEA73
:101E090004F527E527C3940A5059E52725E0242836
:101E1900F8E6FE08E6FFEA25E02428F8E6FC08E6ED
:101E2900C39FEC9E5039EA25E02428F8E6FE08E62F
:101E3900FFE48F3F8E3EF53DF53CE52725E024285C
:101E4900F8E6FE08E6FFEA25E02428F8A60608A633
:101E590007AF3FE52725E02428F8A63E08A6070591
:101E69002780A00AEA64097096E4F53FF53EF53D3E
:101E7900F53C7A02EA25E02428F8E6FE08E6FFE4C4
:101E8900FCFDE53F2FF53FE53E3EF53EED353DF5E1
:101E99003DEC353CF53C0ABA08DAAF3FAE3EAD3D04
:101EA900AC3CE47B06FAF9F81221AE8F3F8E3E8DE9
:031EB9003D8C3C21
:011EBC002203
:101EBD0012232F7FD0121DD78E1D8F1E7F90121DC6
:101ECD00D78E238F247FD0121DD78E1F8F207F900A
:101EDD00121DD7AD07AC06D3E51E9520E51D951F48
:101EED00400EE51E9520F522E51D951FF521800D6F
:101EFD00C3E520951EF522E51F951DF521D3E5249B
:101F0D009DE5239C400CE5249DF526E5239CF525B8
:101F1D00800BC3ED9524F526EC9523F525D3E5220D
:101F2D009432E5219400500AE5269432E52594007B
:101F3D0040037F0022E51E2520FFE51D351FC3133D
:101F4D00F54EEF13F54FE5242DFFE5233CC313F5B7
:101F5D0050EF13F551534FF05351F0C3E54F9464C7
:101F6D00E54E9400400BD3E55194A0E550940F40FD
:061F7D00037F00227F013A
:011F8300223B
:03000000022323B5
:0C232300787FE4F6D8FD7581510218EDBA
:10162900E709F608DFFA8046E709F208DFFA803EA3
:1016390088828C83E709F0A3DFFA8032E309F60890
:10164900DFFA8078E309F208DFFA807088828C83F8
:10165900E309F0A3DFFA806489828A83E0A3F608AC
:10166900DFFA805889828A83E0A3F208DFFA804C86
:1016790080D280FA80C680D4806980F2803380105D
:1016890080A680EA809A80A880DA80E280CA8033C6
:1016990089828A83ECFAE493A3C8C582C8CCC5833E
:1016A900CCF0A3C8C582C8CCC583CCDFE9DEE7800E
:1016B9000D89828A83E493A3F608DFF9ECFAA9F08D
:1016C900EDFB2289828A83ECFAE0A3C8C582C8CCE3
:1016D900C583CCF0A3C8C582C8CCC583CCDFEADEFC
:1016E900E880DB89828A83E493A3F208DFF980CC5E
:1016F90088F0EF60010E4E60C388F0ED2402B40457
:101709000050B9F582EB2402B4040050AF232345FD
:0617190082239016797393
:10171F00BB010689828A83E0225002E722BBFE02C8
:09172F00E32289828A83E49322FB
:10173800BB010CE58229F582E5833AF583E0225066
:1017480006E92582F8E622BBFE06E92582F8E222B0
:0D175800E58229F582E5833AF583E49322CA
:10176500BC000BBE0029EF8DF084FFADF022E4CC68
:10177500F875F008EF2FFFEE33FEEC33FCEE9DEC31
:10178500984005FCEE9DFE0FD5F0E9E4CEFD22ED77
:10179500F8F5F0EE8420D21CFEADF075F008EF2FC1
:1017A500FFED33FD4007985006D5F0F222C398FDB2
:0517B5000FD5F0EA224F
:1017BA00E88FF0A4CC8BF0A42CFCE98EF0A42CFCCE
:1017CA008AF0EDA42CFCEA8EF0A4CDA8F08BF0A44C
:1017DA002DCC3825F0FDE98FF0A42CCD35F0FCEBAB
:1017EA008EF0A4FEA9F0EB8FF0A4CFC5F02ECD3970
:0F17FA00FEE43CFCEAA42DCE35F0FDE43CFC22DD
:1021AE00C2D5E830E70FB2D5E4C39BFBE49AFAE45C
:1021BE0099F9E498F8EC30E717B2D51221E4121829
:1021CE005BE4C39BFBE49AFAE499F9E498F8800384
:1021DE0012185B30D50DE4C39FFFE49EFEE49DFD17
:0421EE00E49CFC224F
:10180900EB9FF5F0EA9E42F0E99D42F0EC6480C856
:0618190064809845F022F6
:10181F0075F008758200EF2FFFEE33FECD33CDCC80
:10182F0033CCC58233C5829BED9AEC99E582984003
:10183F000CF582EE9BFEED9AFDEC99FC0FD5F0D6E0
:10184F00E4CEFBE4CDFAE4CCF9A88222B800C1B90A
:10185F000059BA002DEC8BF084CFCECDFCE5F0CB48
:10186F00F97818EF2FFFEE33FEED33FDEC33FCEB81
:10187F0033FB10D703994004EB99FB0FD8E5E4F93C
:10188F00FA227818EF2FFFEE33FEED33FDEC33FC29
:10189F00C933C910D7059BE99A4007EC9BFCE99A1D
:1018AF00F90FD8E0E4C9FAE4CCFB2275F010EF2F62
:1018BF00FFEE33FEED33FDCC33CCC833C810D70762
:1018CF009BEC9AE899400AED9BFDEC9AFCE899F89D
:0E18DF000FD5F0DAE4CDFBE4CCFAE4C8F92230
:00000001FF
