:10015700120003E4FFFE1200C17F1F7E001200C1E0
:100167007F007EF81200C17F1F7EF81200C17FE07A
:100177007E071200C17FFF7E7F1200C17FE07EFFF6
:0C0187001200C174FFFFFE1200C180C70F
:10019300E4FDFCC3ED9FEC9E5014E4FBFA0BBB00A3
:0E01A300010AEBF44A70F60DBD00010C80E578
:0101B100222B
:0F01E000C2A7D2B2C2A68F80C2A5D2A5D2A72233
:0401CD001201E0FF3C
:0F01D100C2A7D2B2D2A68F80C2A5D2A5D2A72232
:10000300D2B37FC87E00120193C2B37F207E031256
:100013000193D2B31201937F367E001201E07F4831
:100023001201D17F3A1201E07F051201D17FFE1246
:1000330001E07FEF1201E07FE21201E07F80120115
:10004300D17FA31201E07F071201D17FA41201E047
:100053007F091201D17FFF1201E07F121201D17FCC
:10006300FD1201E07F041201D17FF51201E0E4FFEC
:100073001201D17FFB1201CD7FF11201E07F5512F6
:1000830001D17FF81201E07F221201D17FF3120127
:10009300E07F521201D17FFA1201E07F251201D1D4
:1000A3007FF41201CD7FFC1201CD7F111201E07F9D
:0E00B300781201937F291201E07F320201933F
:100118008F828E837F2A7E001201E0E583FF120121
:10012800D1AF821201D1EAFF1201D1AF031201D17E
:100138007F2B1201E0ECFF1201D1AF051201D1E5CE
:0F01480012FF1201D1AF131201D17F2C0201E07F
:1001B200AD07AC06C2A7D2B2D2A6ECFF8F80C2A511
:0B01C200D2A58D80C2A5D2A5D2A72235
:0400C1008E088F090D
:1000C50075120175133F7BEF7A00E4FDFCFFFE120C
:1000D5000118C2A7D2A6D2B2E4F50AF50BE4FBFAE1
:1000E500AF09AE081201B2E508F580C2A5D2A58513
:1000F5000980C2A5D2A50BBB00010AEB64F04A70CA
:10010500DF050BE50B7002050AC39440E50A94016F
:0201150040CBDD
:0101170022C5
:030000000201EF0B
:0C01EF00787FE4F6D8FD758113020157FB
:00000001FF
